:100000000C942D010C9455010C9455010C94550140
:100010000C9455010C9455010C9455010C94550108
:100020000C9455010C9455010C94342C0C94C32A57
:100030000C9455010C9455010C9455010C945501E8
:100040000C9455010C9455010C9455010C945501D8
:100050000C9455010C9455010C9455010C94742189
:100060000C9455010C9405260C9437260C945501DC
:100070000C9455010C9455010C9455010C945501A8
:100080000C9455010C9455010C9455010C94550198
:100090000C9455010C9455010C9455010C94550188
:1000A0000C9455010C9455010C9455017D0981095E
:1000B0008B0AA00A890B270CC70CD60CE20C960DF4
:1000C0008C0D990D9C0DA20DA70DB10DB60DE30D74
:1000D000330E2F0F340F390F400FA409BC09D70975
:1000E000F109110A2A0A4B0A650A4E134E135813D6
:1000F00058135813BD13BD13BD13C913C313C31332
:10010000C313C522CA22CF22D922E3222D232D23B5
:100110002D23ED22F72201230B2318232D23202347
:100120004E235123402344234A23722372237223F4
:10013000552359235D236323672372236D23070609
:1001400005040100080A0B0C0D090000000200095B
:100150000F0000030401000C00000000000000007C
:1001600000000000000000000004080201104080B0
:10017000401020408040800802040180402010028E
:1001800001108010204040200404040404030405EE
:100190000202020204030202020206060606060624
:1001A0000404020202040400000000250028002BC1
:1001B000002E00310000000000240027002A002D3E
:1001C000003000080B0002020201000904000001D7
:1001D000020200000524001001052401010104248D
:1001E00002060524060001070581031000400904EA
:1001F0000100020A00000007050202400000070596
:10020000830240000012010002EF0201400912FEC9
:10021000EF00010102030112010002000000400989
:1002200012FEEF000101020301556E6B6E6F776ED7
:1002300000456666696779204C61627320436F6E82
:1002400074726F6C20506564616C000403090400D3
:10025000D213941FC5246726091411241FBECFEFA3
:10026000DAE0DEBFCDBF11E0A0E0B1E0E6EBF5E6FD
:1002700002C005900D92A83CB107D9F728E0A8EC80
:10028000B1E001C01D92A730B207E1F711E0CCE266
:10029000D1E004C02197FE010E944630C832D10748
:1002A000C9F70E948F2D0C94CE320C940000CF928F
:1002B000DF92EF92FF920F931F93CF93DF93EB01A7
:1002C0007B0124EBE20EF11C8B016C01C61AD70AEC
:1002D000C601800F911F0E948132F80181938F0126
:1002E000EE15FF05A9F7CE01DF91CF911F910F9178
:1002F000FF90EF90DF90CF900895DC01ED91FC919D
:100300000190F081E02D0994EF92FF920F931F93DB
:10031000CF93DF931F92CDB7DEB77C01FC01008144
:100320001181C80169830E9481326981681719F0BF
:10033000C8010E948932C7010F90DF91CF911F91B0
:100340000F91FF90EF900895AF92BF92CF92DF92FE
:10035000EF92FF920F931F93CF93DF9300D0CDB70F
:10036000DEB78B016B0124EBC20ED11C7B015C015B
:10037000A61AB70A95012E0D3F1DF70161917F0165
:100380003A832983CE0101960E948401EC14FD0476
:1003900089F7C8010F900F90DF91CF911F910F91B6
:1003A000FF90EF90DF90CF90BF90AF900895EF92C5
:1003B000FF920F931F93CF93DF9300D0CDB7DEB79B
:1003C0008EE3E82E83E0F82E00E010E0F701619163
:1003D0007F011A830983CE0101960E9484010F5F79
:1003E0001F4F0436110591F78EE393E00F900F90A5
:1003F000DF91CF911F910F91FF90EF9008950F9390
:100400001F93FC0180E094E09383828380E090E07E
:10041000A0E8B0E481879287A387B48781E08587CD
:10042000168A178A108E118E128ECF010E944021DB
:100430001F910F910895CF93DF93C8E6D5E08C818B
:100440009D819F838E838E899F89998F888F88A5B0
:1004500099A59BA78AA78AAD9BAD9DAF8CAF8881DC
:100460000E946D228CE094E00E9401218091290479
:1004700090912A049D838C838A890E946D228AEE42
:1004800093E00E94012180910704909108049F8BC2
:100490008E8B8CA10E946D2288EC93E00E9401213A
:1004A0008091E5039091E60399A788A78EA90E9401
:1004B0006D2286EA93E00E9401218091C30390910E
:1004C000C4039BAF8AAFDF91CF9108952EE0269FA2
:1004D000F001279FF00D112428E3AC01249FC001F7
:1004E000259F900D1124E80FF91FEE5CFB4F81E072
:1004F00090E095838483938782871182108211868E
:10050000108608952F923F924F925F927F928F9222
:100510009F92AF92BF92CF92DF92EF92FF920F9392
:100520001F93CF93DF93CDB7DEB7C45BD1090FB66E
:10053000F894DEBF0FBECDBF8C012091CA01209F71
:10054000C001219F900D1124BE016F5F7F4F8C5918
:100550009F4F0E94570120E030E0F5E0BF2EACE352
:100560009A2EBFE0AB2E40E050E0929E1001939E89
:10057000300C112460E070E0A49E7001A59EF00C88
:100580001124B69E2001B79E500C1124F201E20DF9
:10059000F31DCF018E0D9F1DCC24C394D12CCC0E06
:1005A000DD1EC80ED91ED6017C90B72DBF70FC0190
:1005B000E553FE4F8080882D807F882E8B2A808295
:1005C000BB2309F46CC0D601DC90BD2DB07F882D13
:1005D0008F70882E8B2A8082D201AE0DBF1DA20D96
:1005E000B31D81E090E08C0F9D1FA80FB91F1196DD
:1005F0008C901197982D9F778180882D8078882EF8
:10060000892A81821196DC901197CD2CCC1CCC24A8
:10061000CC1C1296DC9012979D2D9170D92EDD0C7A
:10062000DC28D0FA87F88182D6948280882D8E7F4C
:100630001296CC901297C1FACC24C0F8D82AC0FAEE
:10064000D1F8D2821296CC9012978C2C86948694F4
:100650001396CC9013979C2D9170C92EC294CC0CFC
:10066000CC0C80ECC822C8288C2C880C880C8D2DD2
:100670008370D82ED828D2821396DC9013979D2DA4
:100680009E7FD92EC294C694C69493E0C922CD28E9
:10069000C3821496BC91A481B0FBA0F9A4836F5FC0
:1006A0007F4F6330710509F06CCF4F5F5F4F44306F
:1006B000510509F05FCF2F5F3F4F2330310509F01F
:1006C00052CF1093A5030093A403009345030E9407
:1006D000D701CC54DF4F0FB6F894DEBF0FBECDBFAD
:1006E000DF91CF911F910F91FF90EF90DF90CF900E
:1006F000BF90AF909F908F907F905F904F903F9072
:100700002F9008952F923F924F925F926F927F9217
:100710008F929F92AF92BF92CF92DF92EF92FF9211
:100720000F931F93CF93DF93CDB7DEB7C85BD1098B
:100730000FB6F894DEBF0FBECDBF7C01C954DF4FAA
:1007400019821882C75BD040E5E06E2EFCE35F2E75
:10075000AFE07A2E00E010E0C954DF4F8881998124
:10076000C75BD040589E4001599E900C112480E0F8
:1007700090E0709E5001719EB00C1124CB54DF4F5D
:1007800059834883C55BD040FB01E40FF51FE0812E
:10079000EF70DE2E689EF001699EF00D1124E80DC9
:1007A000F91DEA0DFB1D22242394312C2C0E3D1E35
:1007B000E20DF31D4080242D207F422E4D284082E3
:1007C0004F5F5F4FDD2009F452C06B01C40ED51E90
:1007D000D601DC90D29420EFD222B42DBF704B2EE4
:1007E0004D284082CB54DF4F28813981C55BD040F2
:1007F000260F371FD9011296CC9012971396DC90D2
:10080000D0FAC7F8C182D1FACC24C0F8D280BD2D6D
:10081000BE7FDB2EDC28D282D9011496CC901497AF
:10082000C0FAD1F81596CC904C2C440C440CBD2D3C
:10083000B370DB2ED428D282C6FACC24C0F8D38081
:10084000AD2DAE7FDA2EDC28D382D9011696CC905E
:10085000CC0CBD2DB170DB2EDC28D382D480D90125
:1008600017962C9120FBD0F8D482495F5F4F0196F8
:100870008330910509F082CF0F5F1F4F04301105BF
:1008800009F075CFC954DF4F28813981C75BD0404B
:100890002F5F3F4FC954DF4F39832883C75BD04058
:1008A0002330310509F056CF2091CA012E9DC00199
:1008B0002F9D900D1124BE016F5F7F4F8C599F4F6C
:1008C0000E94A4018091A4039091A503E816F90663
:1008D00019F4C7010E948202C854DF4F0FB6F89482
:1008E000DEBF0FBECDBFDF91CF911F910F91FF9063
:1008F000EF90DF90CF90BF90AF909F908F907F90C0
:100900006F905F904F903F902F9008959F92AF927D
:10091000BF92CF92DF92EF92FF920F931F93CF93EC
:10092000DF93CDB7DEB7CDB6DEB6009709F478C059
:100930006115710509F474C089010F5F1F4F060F1F
:10094000171FEDB7FEB7E01BF10B0FB6F894FEBF13
:100950000FBEEDBF31965F017F01FA01D501420F55
:10096000531FE417F50719F091909D92FACFFC01FF
:10097000D501A20FB31F680F791FE617F70719F00B
:1009800081918D93FACF4FE050EF60E070E082EEFE
:1009900095E00E94611F82EE95E00E94511F44E0A5
:1009A00050E062E071E282EE95E00E94611F82EE0B
:1009B00095E00E94511F0115110591F161E070E071
:1009C00080E090E00E94EF210230110559F00330E1
:1009D000110599F001301105C1F445E057EF60E0D1
:1009E00070E008C046E0F701508167EF70E0C70192
:1009F00001967C0100E010E0D6CF47E0F70150817E
:100A0000618177EFC7010296F4CF44E0F70150818E
:100A10006181728103501109C70103967C01C3CF24
:100A20000FB6F894DEBE0FBECDBE0FB6F894DEBE94
:100A30000FBECDBEDF91CF911F910F91FF90EF9030
:100A4000DF90CF90BF90AF909F90089520913C038E
:100A500030913D03F901E158FD4F7083818392830A
:100A60002D5F3F4F30933D0320933C0380913A0329
:100A700090913B03019690933B0380933A03089532
:100A80008F929F92AF92BF92CF92DF92EF92FF929E
:100A90000F931F93CF93DF93EC017B018A0182E1D7
:100AA0000E946D22A0904003B090410382E10E9419
:100AB0006D22A81AB90AB7FC16C0A0904003B090E6
:100AC000410382E10E946D22C0904003D090410317
:100AD000A81AB90ACA14DB0444F082E10E946D220C
:100AE000C81AD90A02C0C12CD12CB601DD0C880B62
:100AF000990B0E94BF2E4B015C01809140039091A5
:100B00004103BC01990F880B990B0E94BF2E9B01DA
:100B1000AC01C501B4010E94152E4B015C01B70167
:100B2000FF0C880B990B0E94BF2E9B01AC01C501E5
:100B3000B4010E94742F0E94872E9B01220F331F45
:100B4000620F731FCB018C0F9D1F97FD05C0081707
:100B5000190724F4C80102C080E090E0DF91CF9132
:100B60001F910F91FF90EF90DF90CF90BF90AF90CB
:100B70009F908F9008950E94BE212091CE053091C4
:100B8000CF05621B730B8091110190E06817790704
:100B90007CF10E94BE216093CE057093CF058093B7
:100BA000D0059093D1052091160190910F0160918D
:100BB0000E01291710F4621758F04091120150915C
:100BC000130151954195510950931301409312011E
:100BD00080911201820F861720F0682F981708F471
:100BE000692F6093160170E0809117010C949E228A
:100BF0000895AF92BF92CF92DF92EF92FF920F9340
:100C00001F93A0901401B12CC12CD12C2091400332
:100C100030914103032E000C440B550BBC01990F7E
:100C2000880B990BE09115011F921F921F92EF9371
:100C3000E12CF12C87010E94CA2C70931301609360
:100C400012010F900F900F900F901F910F91FF9036
:100C5000EF90DF90CF90BF90AF900895CF93DF9348
:100C600040E050E0DFE0CCE38295807F60E070E020
:100C7000C49FD001C59FB00D1124D69F9001D79F6E
:100C8000300D11242A0F3B1FF901E553FE4F9081CF
:100C90009F70982B9083F901E053FE4F90819F70D5
:100CA000982B9083F901EB52FE4F90819F70982B07
:100CB00090836F5F7F4F64307105F9F64F5F5F4F30
:100CC0004330510599F6DF91CF9108957F928F922D
:100CD0009F92AF92BF92CF92DF92EF92FF920F93CB
:100CE0001F93CF93DF936B01722E00E010E07A0127
:100CF000E894E1F8EA0122974C01990FAA08BB0891
:100D00000C151D05DCF581E0E816F10461F477208F
:100D100029F061E083E00E94AF2305C061E070E04C
:100D200083E00E949E22C230D10560F4772029F032
:100D300061E089E00E94AF2305C061E070E089E0D6
:100D40000E949E22C501B4010E94EF2181E0E816B5
:100D5000F10429F460E070E083E00E949E22C2303A
:100D6000D10528F460E070E089E00E949E22C50170
:100D7000B4010E94EF210F5F1F4FC2CFDF91CF91CF
:100D80001F910F91FF90EF90DF90CF90BF90AF90A9
:100D90009F908F907F9008952F923F924F925F92F5
:100DA0006F927F928F929F92AF92BF92CF92DF927B
:100DB000EF92FF920F931F93CF93DF93CDB7DEB7E0
:100DC000A4970FB6F894DEBF0FBECDBF19821A826A
:100DD0001B821C821D821E821F82188680E094E086
:100DE000A0E0B0E089879A87AB87BC871D861E8606
:100DF0001F86188A198A1A8A1B8A1C8A8D8B9E8BD9
:100E0000AF8BB88F198E1A8E1B8E1C8E1D8E1E8E68
:100E10001F8E18A289A39AA3ABA3BCA3C12CD12C6B
:100E2000CE0185965C012090180130901901C21402
:100E3000D3040CF060C058E6E52E55E0F52E8E0187
:100E40000F5F1F4FF70182819381181619060CF46A
:100E500045C080810E946D224C01F70180810E9473
:100E60006D22C401990CAA0BBB0BF801448155817A
:100E700066817781982E892E3A2F2B2F841795071C
:100E8000A607B70724F4942E852E362F272FF801B6
:100E90009482858236832783408551856285738558
:100EA000982E892E3A2F2B2F481759076A077B0750
:100EB00024F4942E852E362F272FF80190868186D4
:100EC000328723874081518162817381840F951F0E
:100ED000A61FB71F80839183A283B383F2E1EF0E35
:100EE000F11C045F1F4F0A151B0509F0ABCF2FEF54
:100EF000C21AD20A98CF60900C0170900D0108E6DA
:100F000015E0CE0101967C016C014801032C000C18
:100F100044085508F4018281938118161906ACF033
:100F2000F6016081718182819381A20191010E9409
:100F30002730F60120833183428353838481958156
:100F4000860D971DF40191878087F2E18F0E911C29
:100F50002CE0C20ED11CCA14DB04E1F640E050E0E4
:100F6000E8E6F5E080E094E022813381232B51F420
:100F700020853185421753070CF4A901281739073A
:100F80000CF4C901729625E0EE39F20769F7509327
:100F9000CD054093CC059093CB058093CA05853F42
:100FA000E1E09E071CF1893E934084F021E042E09D
:100FB00050E064E070E08AEF90E00E94660668EB23
:100FC0007BE080E090E00E94EF21F0CF21E042E062
:100FD00050E068E070E08AEF90E00E94660668EBFF
:100FE0007BE080E090E00E94EF21F0CF60E082E0C3
:100FF0000E94AF2364E670E080E090E00E94EF2161
:1010000038E6832E35E0932ECE0101966C01412CFB
:1010100044E0542E612C712CF60110821182128250
:101020001382148215821682178240865186628648
:101030007386F40180810E946D22F40180810E94F8
:101040006D22FCE0CF0ED11C22E1820E911CCA144D
:10105000DB0411F7612C712C40901801509019019C
:10106000641475040CF060C0CE0101966C0128E692
:10107000822E25E0922EF4018281938118161906A2
:101080000CF444C080810E946D22F40180810E9492
:101090006D22092E000CAA0BBB0BF6014481558171
:1010A00066817781582E492E3A2F2B2F841795076A
:1010B000A607B70724F4542E452E362F272FF60106
:1010C00054824582368327834085518562857385A6
:1010D000582E492E3A2F2B2F481759076A077B079E
:1010E00024F4542E452E362F272FF60150864186A4
:1010F000328723874081518162817381840F951FDC
:10110000A61FB71F80839183A283B383F2E18F0E62
:10111000911C2CE0C20ED11CCA14DB0409F0ABCF29
:101120008FEF681A780A98CF8FE097E29093C905FD
:101130008093C80588E6882E85E0982E9FE0C92E0A
:1011400097E2D92E052C000C66087708F4018281FD
:101150009381892BF1F4F701608171818281938100
:10116000A30192010E942730F7012083318342833B
:101170005383A601DD0C660B770B80859185A285D4
:10118000B385481759076A077B0714F4DB01CA01C6
:101190006C01F2E18F0E911C2CE0E20EF11CEA14BE
:1011A000FB04A1F6D092C905C092C80540910A017E
:1011B00050910B01C41AD50A2091CC053091CD0570
:1011C000C21AD30AE8E6F5E082819381892B31F4D3
:1011D000808591858C0D9D1D93878287729685E011
:1011E000E03BF80789F78091C8059091C905841BF9
:1011F000950B821B930B9093C7058093C60561E006
:1012000082E00E94AF2364E670E080E090E00E94FC
:10121000EF218091400390914103F80122813381B5
:101220002130310521F411861086938782870E5E66
:101230001F4FF5E0003B1F0781F7A4960FB6F89407
:10124000DEBF0FBECDBFDF91CF911F910F91FF90F9
:10125000EF90DF90CF90BF90AF909F908F907F9056
:101260006F905F904F903F902F9008958091A203D0
:101270009091A3038336910551F482E390E090931B
:101280001B0180931A011092A3031092A2030E94E3
:10129000FF0F9093A3038093A20320E041E050E06E
:1012A000BC0180911A0190911B010C9466062F924B
:1012B0003F924F925F926F927F928F929F92AF92E6
:1012C000BF92CF92DF92EF92FF920F931F93CF9333
:1012D000DF93CDB7DEB7C157D1400FB6F894DEBF6C
:1012E0000FBECDBF8DB69EB68731910508F0DEC525
:1012F000FC01EA5AFF4F0C9446308091840290E042
:1013000043C38091840224EB829FC0011124BE015B
:101310006F5F7F4F8C599F4F0E945701E091880269
:101320008E2F90E08830910508F0E7C0AC0143595A
:101330005F4F209187029091860260918502809193
:101340008902FA010C9446303CE3639FF0011124BA
:1013500065E0269FE00DF11D11247FE0979FE00DD1
:10136000F11D1124A1E0B0E0AC0FBD1FEA0FFB1F7F
:101370008F709081907F18C0BCE36B9FF0011124A7
:1013800035E0239FE00DF11D11246FE0969FE00DE5
:10139000F11D1124A1E0B0E0AC0FBD1FEA0FFB1F4F
:1013A0008295807F90819F70892B8083A6C0BCE34B
:1013B0006B9FF001112435E0239FE00DF11D1124F6
:1013C0006FE0969FE00DF11D1124A1E0B0E0AC0F9D
:1013D000BD1FEA0FFB1F8F7791819078892B818346
:1013E0008CC0BCE36B9FF001112435E0239FE00D1E
:1013F000F11D11246FE0969FE00DF11D1124A1E075
:10140000B0E0AC0FBD1FEA0FFB1F918180FB97F985
:10141000918381FB992790F982818E7F892B82832A
:101420006CC0BCE36B9FF001112435E0239FE00DFD
:10143000F11D11246FE0969FE00DF11D1124A1E034
:10144000B0E0AC0FBD1FEA0FFB1F928180FB91F94A
:10145000928353C0BCE36B9FF001112435E0239FBE
:10146000E00DF11D11246FE0969FE00DF11D112498
:10147000A1E0B0E0AC0FBD1FEA0FFB1F282F220F29
:10148000220F92819370922B928386FB992790F979
:1014900083818E7F17C0BCE36B9FF001112435E080
:1014A000239FE00DF11D11246FE0969FE00DF11DCB
:1014B0001124A1E0B0E0AC0FBD1FEA0FFB1F880FA5
:1014C00093819170892B838318C0BCE36B9FF001DB
:1014D000112435E0239FE00DF11D11246FE0969F4C
:1014E000E00DF11D1124A1E0B0E0AC0FBD1FEA0F2B
:1014F000FB1F948180FB90F9948380918402B4EB6C
:101500008B9FC0011124BE016F5F7F4F8C599F4F8D
:101510000E94A40109C08091840246E050E06FE778
:1015200072E090E00E9482038091840290E020911A
:10153000A4033091A5038217930709F0B7C424C20E
:1015400080918402E4EB8E9FC0011124BE01695496
:101550007F4F8C599F4F0E94570183E0C559DE4F42
:101560008883CB56D14080918402C459DE4F888352
:10157000CC56D14020E030E060E070E045E0A42EA1
:101580005CE3752EEFE0BE2E40E050E0729E8001DD
:10159000739E100D1124A0E0B0E0B49E7001B59EC2
:1015A000F00C1124AA9E2001AB9E500C1124F201D4
:1015B000E00FF11FEE0DFF1D87EB282E312C2C0EB6
:1015C0003D1E2E0E3F1EF1016080F62DFF706F2E26
:1015D000CC24C394D12CCC0EDD1EC60ED71EF60132
:1015E00060826F5F7F4F662009F47CC0CC24C39477
:1015F000D12CCC0EDD1EC60ED71EF1018081829546
:101600008F70F6018083F2E02F2E312C2C0E3D1EC0
:10161000260E371EC2018E0D9F1D800F911FE7EB16
:10162000CE2ED12CCC0EDD1E8C0D9D1DFC01D1804B
:10163000FD2DFF77DF2EF101D082F3E04F2E512CEC
:101640004C0E5D1E460E571EFC01D180CD2CCC1CCD
:10165000CC24CC1CD280FD2DF170DF2EDD0CDC28DB
:10166000F201D082E4E04E2E512C4C0E5D1E460E4F
:10167000571EFC01D280D1FADD24D0F8F201D082CD
:10168000F5E04F2E512C4C0E5D1E460E571EFC01F0
:10169000D280CD2CC694C694D380FD2DF170DF2E60
:1016A000D294DD0CDD0CE0ECDE22DC28F201D082ED
:1016B000F6E04F2E512C4C0E5D1E460E571EFC01BF
:1016C000D380D694F201D082E7E0CE2ED12CCC0E7E
:1016D000DD1EC60ED71EFC0184818170F601808359
:1016E000695F7F4F1196A330B10509F05BCF4F5F63
:1016F0005F4F4430510509F04ECF2F5F3F4F2330ED
:10170000310509F041CF22E030E0AE0145595E4F8E
:10171000C9C3809184029091CA01899FC00111249C
:10172000BE016F5F7F4F8C599F4F0E94570184E02D
:10173000C559DE4F8883CB56D14080918402C4596D
:10174000DE4F8883CC56D14020918502C359DE4FAD
:101750002883CD56D14080918602C259DE4F8883BE
:10176000CE56D14040918702C159DE4F4883CF56B3
:10177000D140DE01A954BF4F98E0FD0111929A9526
:10178000E9F7F5E04F9FA00111246CE3269F90013B
:101790001124FA01E20FF31F7FE0879FC00111249B
:1017A000E80FF91FCC24C394D12CCC0EDD1EEC0D18
:1017B000FD1D60816F706C93662309F43FC06081EA
:1017C00062956F7011966C931197FA01E80FF91FEB
:1017D000E20FF31FEC0DFD1D81818F7712968C9324
:1017E00012978181982F991F9927991F8281817063
:1017F000880F892B13968C9313978281869581701D
:1018000014968C9314978281982F96959695838140
:1018100081708295880F880F807C892B15968C9318
:1018200015978381869516968C931697848181707F
:1018300017968C93179768E070E002C061E070E043
:1018400025E030E0AE0145595E4FCD012DC3D0906B
:101850008402ED2CF12C60908502712CA090860200
:10186000B12C40908702512C8091CA018D9DC001FE
:101870001124BE016F5F7F4F8C599F4F0E9457010B
:10188000809188028F7095E0949D8001959D100D48
:1018900011249CE3969D9001979D300D1124020F19
:1018A000131F9FE09A9D90019B9D300D1124020F04
:1018B000131F21E030E02C0F3D1F020F131FD80132
:1018C0009C91907F982B9C93882309F448C0809129
:1018D00089028295807F9F70982B9C9380918A02C9
:1018E00090918B0290FB87F911968C93119791FB45
:1018F000222720F912969C9112979E7F922B129686
:101900009C93129780918C0280FB91F920918D021B
:10191000822F880F880F9370982B12969C931297A2
:1019200026FB992790F913962C9113972E7F292B3C
:1019300013962C9362E371E08FEF96E00E94C2272A
:1019400090918E02892F880FF80193819170982BC6
:101950009383848190918F0290FB80F9848380919E
:10196000CA018D9DC0011124BE016F5F7F4F8C594C
:101970009F4F0E94A4018091A4039091A503E816B3
:10198000F90609F093C2C7010E9482028FC26091DA
:10199000840270E07093A3036093A20320E041E00F
:1019A00050E082E390E00E94660680C283E690E009
:1019B0009093A3038093A20381E08093C9010E94C6
:1019C000360977C258E6652E55E0752ED30112967A
:1019D0008D919C911397892B09F07EC018964D909C
:1019E0005C9019976091840270E080E090E0209113
:1019F000C6053091C7058901330F220B330B3F9386
:101A00002F931F930F93A12CB12C650114E6E12EA7
:101A1000F12C00E010E020E030E0A9010E94CA2C87
:101A20000F900F900F900F901616170618061906B4
:101A30000CF04BC06091840270E080E090E0209157
:101A4000C6053091C7058901330F220B330B3F9335
:101A50002F931F930F9314E6E12EF12C00E010E07A
:101A600020E030E0A9010E94CA2C2091C6053091E7
:101A7000C7056901032E000CEE08FF080F900F90B8
:101A80000F900F90C616D706E806F90614F4B901B0
:101A90001EC080918402682F70E080E090E0FF9289
:101AA000EF92DF92CF92A12CB12C650114E6E12ECA
:101AB000F12C00E010E020E030E0A9010E94CA2CE7
:101AC0000F900F900F900F9002C061E070E0640DD6
:101AD000751DF30173876287F2E16F0E711C20EBB5
:101AE000621625E0720609F071CF409184022091C0
:101AF000400330914103429FC001439F900D112448
:101B000090934303809342030E94D7018091840203
:101B100090E00E94F905CAC18091840234E6839F57
:101B2000C001112490931901809318010E94CC06E2
:101B3000BDC1E0E0F0E009958091840290E00E9450
:101B40002E06B4C1809184028093480396C180918F
:101B5000840290914403891709F4A8C18093440337
:101B60008CC1809184028093490387C1A0900E01AB
:101B7000B12CC12CD12C6091840270E080E090E007
:101B80001F921F921F9220E22F9314E6E12EF12C58
:101B900000E010E020E030E0A9010E94CA2C609330
:101BA00010016093470360930F01862F90E00E941D
:101BB000F9050E94D70181E08093C9010F900F9031
:101BC0000F900F9076C10DB71EB781E1C954DF4F5A
:101BD0008883C75BD04084E6EEE3F3E0DE01119634
:101BE00001900D928A95E1F72DB73EB72A51310940
:101BF0000FB6F8943EBF0FBE2DBF6DB77EB76F5FB7
:101C00007F4F7B01CE0101966C01FB0131964DB7F0
:101C10005EB7445E5F4FD6019D916D01BF0161507B
:101C20007109292F30E0A4E035952795AA95E1F7B1
:101C3000DB012C939F7090833296E417F50759F7D8
:101C400021E030E0AE0149545F4F6AE170E0C70126
:101C50000E94860481E08093C9010FB6F8941EBFEC
:101C60000FBE0DBF26C182E1C559DE4F8883CB561A
:101C7000D14004E610E0BE0169547F4FC8010E94C4
:101C8000570180E090E060E070E045E0642E5CE3A6
:101C9000552EEFE07E2E40E050E0589E5001599EB8
:101CA000B00C1124A0E0B0E0749E7001759EF00CA1
:101CB00011246A9E10016B9E300C1124F101EA0D73
:101CC000FB1DEE0DFF1D27EBC22ED12CCC0EDD1E11
:101CD000CE0EDF1EC059DE4FD982C882C057D14018
:101CE000F6014080F42DFF704F2ECC24C394D12CEC
:101CF000CC0EDD1EC60ED71EF60140826F5F7F4FF1
:101D0000442009F48BC0CC24C394D12CCC0EDD1E0E
:101D1000C60ED71EC059DE4FE881F981C057D140A9
:101D2000208122952F70F601208332E0C32ED12C22
:101D3000CC0EDD1EC60ED71EC059DE4FD982C8821A
:101D4000C057D14091012E0D3F1D2A0D3B1DE7EBE1
:101D5000F0E0EC0FFD1F2E0F3F1FF901D180FD2D8C
:101D6000FF77DF2EC059DE4FE881F981C057D1409F
:101D7000D082E3E02E2E312C2C0E3D1E260E371E77
:101D8000F901D180CD2CCC1CCC24CC1CD280FD2DD3
:101D9000F170DF2EDD0CDC28F101D082F4E02F2E73
:101DA000312C2C0E3D1E260E371EF901D280D1FAA1
:101DB000DD24D0F8F101D082E5E02E2E312C2C0E5E
:101DC0003D1E260E371EF901D280CD2CC694C69436
:101DD000D380FD2DF170DF2ED294DD0CDD0CF0EC04
:101DE000DF22DC28F101D082E6E02E2E312C2C0EF1
:101DF0003D1E260E371EF901D380D694F101D08204
:101E0000F7E0CF2ED12CCC0EDD1EC60ED71EF90169
:101E100024812170F6012083695F7F4F1196A330E2
:101E2000B10509F046CF4F5F5F4F4430510509F0CF
:101E300039CF01968330910509F02DCF21E030E0B4
:101E4000AE0145595E4FCE0101960E9486040C54A6
:101E50001F4F083EF3E01F0709F00DCF27C0809108
:101E600084028093450309C0198283E18A8384E157
:101E70000DC080918402809346030E94D70116C052
:101E80001A8219828091A2038A8386E1C954DF4FA6
:101E90008883C75BD04021E030E0AE0149545F4FFA
:101EA00062E070E0CE0101960E94860481E080939A
:101EB000C9010FB6F8949EBE0FBE8DBECF58DE4F3F
:101EC0000FB6F894DEBF0FBECDBFDF91CF911F914B
:101ED0000F91FF90EF90DF90CF90BF90AF909F90C9
:101EE0008F907F906F905F904F903F902F900895CC
:101EF00082EE95E00E94D81E2CEF260F243008F0C9
:101F00007DC06630C9F1673009F446C0653089F19B
:101F100020913A0330913B032115310521F0213006
:101F2000310551F01FC010923D0310923C031092F6
:101F300039031092C9011AC00E94260580917F02C0
:101F4000803F61F480918002811108C080918102FC
:101F5000823021F4809182028132C9F181E0809344
:101F6000390335C020913903211131C00E94260563
:101F70002EC0773F61F51FC080913C0390913D03D7
:101F80009C012F5F3F4F30933D0320933C03FC01A6
:101F9000E158FD4F70830FC020913C0330913D0309
:101FA000F901E158FD4F70832E5F3F4F30933D03A1
:101FB00020933C03818380913A0390913B030196E7
:101FC00090933B0380933A0381E08093C901809111
:101FD000C901882399F0809183028093C801909170
:101FE0003903911103C090E00E94570910923B03FE
:101FF00010923A03109239031092C90108952F925A
:102000003F924F925F926F927F928F929F92AF9288
:10201000BF92CF92DF92EF92FF920F931F93CF93D5
:10202000DF93CDB7DEB728970FB6F894DEBF0FBEAB
:10203000CDBFCE0101967C0108E615E0F801808154
:102040000E946D22F80180810E946D22F701819328
:1020500091937F010E5E1F4FF5E00E391F0771F758
:102060000E94BE2160932E0470932F04809330044D
:102070009093310400E010E0CE01019698878F83A1
:1020800088E6282E85E0382EEE24E394F12CC12C2E
:10209000D12CF10182819381892B99F580810E9455
:1020A0006D22F10180810E946D223C01EF81F88553
:1020B00060817181072E000C880B990B0E94BF2E46
:1020C0004B015C01B301770C880B990B0E94BF2E6A
:1020D0002B013C0120E030E040E05FE3C501B401AA
:1020E0000E94742F9B01AC01C501B4010E94A42D74
:1020F0009B01AC01C301B2010E946F2F18160CF4B2
:102100006701FFEFEF1AFF0A82E1280E311CEF8111
:10211000F8853296F887EF83F5E0EF16F10409F0C1
:10212000B8CF0E94BE2120912E0430912F04621B53
:10213000730B80911C0190911D0186179707A4F4E1
:1021400081E00827B80189E00E949E22B80183E05F
:102150000E949E220E94BE2160932E0470932F0441
:1021600080933004909331040E94780FC114D104FD
:1021700009F482CF60E070E089E00E949E2261E075
:1021800070E0809117010E949E22C60128960FB62A
:10219000F894DEBF0FBECDBFDF91CF911F910F919D
:1021A000FF90EF90DF90CF90BF90AF909F908F9077
:1021B0007F906F905F904F903F902F900895CF93B6
:1021C000DF930E94FF0FEC0145E050E062E070E019
:1021D0000E9440051816190694F445E050E062E0AC
:1021E00070E0CE010E944005069764F445E050E09F
:1021F00062E070E0CE010E944005019705C080E0DA
:1022000090E002C084E090E0DF91CF9108950E94B9
:10221000FF0F40E150E066E070E00E94400501974A
:1022200008952F923F924F925F926F927F928F927A
:102230009F92AF92BF92CF92DF92EF92FF920F9355
:102240001F93CF93DF9340E855E260E070E08FEF9B
:1022500096E00E94BF2426E042E15AE760E070E089
:102260008FE497E00E94A02561E082E00E94732342
:1022700061E083E00E94732361E089E00E947323A0
:1022800061E082E00E94AF2361E070E089E00E949B
:102290009E2260E476E080E090E00E94EF2185E1FC
:1022A00090E0909369058093680510926B051092F9
:1022B0006A0584E190E090937B0580937A05109203
:1022C0007D0510927C0583E190E090938D058093CD
:1022D0008C0510928F0510928E0582E190E090930C
:1022E0009F0580939E0581E090E09093A1058093E7
:1022F000A00586E090E09093B1058093B00582E060
:1023000090E09093B3058093B20588E6282E85E08F
:10231000382E42E354E02AE435E0D10119961C92AC
:102320001E9218971B961C921E921A9715961C9235
:102330001E92149717961C921E921697FA0180E02F
:1023400090E0B901680F791FEB011982188211869C
:1023500010861386128617821682158214821182C5
:1023600010821382128202963E968630910549F7BA
:102370005296485C5F4F2A5F3F4FD5E0A03BBD07B8
:1023800069F60EE313E0812C912CC4010E94813286
:10239000F80181938F01FFEF8F1A9F0A24E68216BE
:1023A000910499F76CED75E08FEF96E00E94CF27CE
:1023B0008091470380930F0184EB8093CA011092B0
:1023C000A7051092A6058091400390914103909338
:1023D000A9058093A80580914503C4EB8C9FC0019B
:1023E00011246BEC71E08C599F4F0E945701809132
:1023F000450390E09093A5038093A4038091480344
:1024000090E090930D0180930C018091490390E03E
:1024100090930B0180930A010E94CC06F101828106
:102420009381892B09F08DC080849184E0904003D2
:10243000F09041030F2C000C000B110B4090420355
:1024400050904303B201550C880B990B2091C6059F
:102450003091C7052901330F660877087F926F9284
:102460005F924F92A12CB12C650120E030E0A901D0
:102470000E94CA2C0F900F900F900F9016161706FF
:10248000180619060CF056C0E0904003F090410386
:102490000F2C000C000B110B409042035090430393
:1024A000B201550C880B990B2091C6053091C705D8
:1024B0002901330F660877087F926F925F924F92DF
:1024C00020E030E0A9010E94CA2C2091C60530917D
:1024D000C7052901032E000C660877080F900F909E
:1024E0000F900F90461657066806790614F4B90146
:1024F00023C0E0904003F09041030F2C000C000B30
:10250000110B8091420390914303BC01990F880BFA
:10251000990B7F926F925F924F92A12CB12C650123
:1025200020E030E0A9010E94CA2C0F900F900F907C
:102530000F9002C061E070E0680D791DE1017B87BA
:102540006A87D2E12D0E311CE0EB2E16E5E03E0647
:1025500009F064CF81E08093C50580914603813006
:1025600011F483E001C089E0809317018091420358
:10257000909143030E94F90580914403811114C096
:10258000DF91CF911F910F91FF90EF90DF90CF904F
:10259000BF90AF909F908F907F906F905F904F9083
:1025A0003F902F900C94360990E09093A303809372
:1025B000A203DF91CF911F910F91FF90EF90DF90D9
:1025C000CF90BF90AF909F908F907F906F905F90D3
:1025D0004F903F902F9008950F931F9386E00E9495
:1025E0006D2286E00E946D222091DB05843F9140A0
:1025F0000CF042C0211110C00E94BE216093D7058B
:102600007093D8058093D9059093DA0581E0809383
:10261000DB051092D605BDC00E94BE210091D205F7
:102620001091D3052091D4053091D505DC01CB0163
:10263000801B910BA20BB30B893E9340A105B10502
:1026400008F4A7C00E94BE216093D2057093D30501
:102650008093D4059093D5058091D6058F5F8093A4
:10266000D60521E042E050E061E070E082E390E0D6
:102670001F910F910C946606222309F48AC01092D0
:10268000DB05E091D6058E2F90E08C30910508F0A7
:1026900080C0FC01EB58FF4F0C94463083E690E07D
:1026A0009093A3038093A2031F910F910C9436097A
:1026B00081E08093C4058091460381110BC064E3DF
:1026C00071E08FEF96E00E94E1278091A205909142
:1026D000A30510C065E471E08FEF96E00E94E1274A
:1026E00080914003909141032091A2053091A30570
:1026F000821B930B9093C3058093C20565E771E03D
:102700008FEF96E00E94C2276091C2057091C305C9
:102710004AE050E08FEF96E00E94932880914603B4
:10272000811115C083E08093170160E089E00E9469
:10273000AF2381E0809346038091A2059091A30589
:1027400090934303809342031092C50509C089E02A
:102750008093170160E083E00E94AF23109246034C
:1027600021E042E050E061E070E08AE090E00E9409
:1027700066061F910F910C94D7010E94DF101F91E4
:102780000F910C9482020E9407111F910F910C94DB
:102790002E061F910F9108950E94EC120E94BB0516
:1027A0000C94780F0F931F9364E871E08CED95E023
:1027B0000E94792D0DEC1CEC2CEC3DE341E065E131
:1027C00070E08CE094E00E94FF010DEC1CEC2CEC1E
:1027D0003DE341E064E170E08AEE93E00E94FF0196
:1027E0000DEC1CEC2CEC3DE341E063E170E088EC87
:1027F00093E00E94FF010DEC1CEC2CEC3DE341E06A
:1028000062E170E086EA93E00E94FF011F910F9160
:1028100008958CED95E00C940B2DAF92BF92CF9262
:10282000DF92FF920F931F93CF93DF931F92CDB749
:10283000DEB759019C0174E0220F331F7A95E1F74E
:10284000F22EF62A8D309105A1F1A4F4883091057D
:1028500094F1182F042FDA2C6F2D8FE497E0598311
:102860000E945925602F5981752F8FE497E00E94AF
:102870007D0129C08E309105F1F4CA2CCC0CD12CED
:10288000D594C794AA0CAB2CAA1CBB081EE00C2D37
:10289000DA2C6F2D8FE497E00E9459256C2D8FE480
:1028A00097E00E9459256A2D8FE497E00E945925F0
:1028B00018C01DE001C0182F0A2DD12C6F2D8FE4F8
:1028C00097E00E945925B5016038710514F06FE753
:1028D00070E077FF02C060E070E08FE497E00E9454
:1028E0007D01412F5F2D602F7D2D82EE95E00E94AE
:1028F000611F82EE95E00F90DF91CF911F910F91B4
:10290000FF90DF90CF90BF90AF900C94511F2F920B
:102910003F924F925F926F927F928F929F92AF926F
:10292000BF92CF92DF92EF92FF920F931F93CF93BC
:10293000DF93CDB7DEB768970FB6F894DEBF0FBE52
:10294000CDBF8091A2039091A303019722E334E0CD
:102950003C8B2B8B4AE455E05E8B4D8BA8E62A2EF0
:10296000A5E03A2E188A1F862CE3289FD001299FC4
:10297000B00D1124BA87A987F10182819381019753
:1029800009F0F8C08091C405882359F0248135816D
:102990008091C2059091C3052817390711F0109254
:1029A000C4058091C4058111E5C0D10114968D91B3
:1029B0009C9115979093C3058093C205209146037F
:1029C0002111B9C0E8E6F5E0FA83E9831D82A98107
:1029D000BA8112968D919C911397892B09F0A1C011
:1029E00018968D909C901997E0904003F0904103C9
:1029F0000F2C000C000B110B6091C2057091C305E8
:102A0000072E000C880B990B2091C6053091C70545
:102A10002901330F660877087F926F925F924F9279
:102A2000A12CB12C650120E030E0A9010E94CA2C44
:102A30000F900F900F900F90161617061806190694
:102A40000CF056C0E0904003F09041030F2C000CB6
:102A5000000B110B6091C2057091C305072E000C8D
:102A6000880B990B2091C6053091C7052901330FBA
:102A7000660877087F926F925F924F9220E030E075
:102A8000A9010E94CA2C2091C6053091C7052901D1
:102A9000032E000C660877080F900F900F900F9090
:102AA000461657066806790614F4B90123C0E0906B
:102AB0004003F09041030F2C000C000B110B6091B0
:102AC000C2057091C305072E000C880B990B7F92ED
:102AD0006F925F924F92A12CB12C650120E030E003
:102AE000A9010E94CA2C0F900F900F900F9002C066
:102AF00061E070E0680D791DE981FA818285938536
:102B0000861B970B97FF03C09195819591090297BA
:102B100044F0A981BA811B967C936E931A97B1E019
:102B2000BD83E981FA817296FA83E983E05BF5401F
:102B300009F04DCF17C02091400330914103A90106
:102B4000481B590BCA0157FD05C02417350724F44B
:102B5000C90102C080E090E0D10115969C938E934C
:102B6000149708C0BD81BB2329F0F10184819581B0
:102B70000E94F9058091C505882349F0D10112967C
:102B80008D919C911397009709F4FDC0BCC0F10191
:102B900082819381892B91F780914603813071F76F
:102BA00028E635E03A832983A981BA8118968D9069
:102BB0009C901997E0904003F09041030F2C000C7B
:102BC000000B110B6091420370914303072E000C20
:102BD000880B990B2091C6053091C7052901330F49
:102BE000660877087F926F925F924F92A12CB12C6A
:102BF000650120E030E0A9010E94CA2C0F900F90DF
:102C00000F900F9016161706180619060CF056C0EE
:102C1000E0904003F09041030F2C000C000B110BCF
:102C20006091420370914303072E000C880B990BAF
:102C30002091C6053091C7052901330F6608770832
:102C40007F926F925F924F9220E030E0A9010E9444
:102C5000CA2C2091C6053091C7052901032E000C0E
:102C6000660877080F900F900F900F904616570642
:102C70006806790614F4B90123C0E0904003F0908F
:102C800041030F2C000C000B110B6091420370915B
:102C90004303072E000C880B990B7F926F925F9273
:102CA0004F92A12CB12C650120E030E0A9010E94D7
:102CB000CA2C0F900F900F900F9002C061E070E04F
:102CC000680D791DE981FA818285938586179707BA
:102CD00081F082819381892B61F473876287D101AE
:102CE00014968D919C9115970E94F905B1E0B093CF
:102CF000C505E981FA817296FA83E983E05BF540C4
:102D000009F052CF3BCF019789F14F8558894F5F2A
:102D10005F4F588B4F8752E1250E311C8B899C8960
:102D2000C8969C8B8B8BAD89BE891696BE8BAD8B5E
:102D3000EF85F889349709F01FCE68960FB6F8949E
:102D4000DEBF0FBECDBFDF91CF911F910F91FF90DE
:102D5000EF90DF90CF90BF90AF909F908F907F903B
:102D60006F905F904F903F902F9008958091460311
:102D7000882359F22D893E893A8B298B4B895C89AE
:102D8000588F4F8B08C08D899E899A8B898BAB8910
:102D9000BC89B88FAF8B1E821D828FE02F8538894A
:102DA000829FF001839FF00D1124F887EF8365E087
:102DB0004D815E81649FC001659F900D1124EF815C
:102DC000F885E80FF91FA985BA85EA0FFB1FE153C3
:102DD000FE4F208120FF16C021FD14C0F101448167
:102DE000558120853185241735077CF0FD01E80FDA
:102DF000F91F2F813885E20FF31FE553FE4F8481C1
:102E00008260848380E090E002C081E090E065E031
:102E10004D815E81649FF001659FF00D1124AF81AB
:102E2000B885EA0FFB1F29853A85E20FF31FE353AC
:102E3000FE4F208126952695318131703295330FD2
:102E4000330F307C232B422F50E05A834983453681
:102E5000510524F0A4E6B0E0BA83A98345E02D81B2
:102E60003E81429FF001439FF00D1124AF81B88550
:102E7000EA0FFB1F29853A85E20FF31FE253FE4F4D
:102E800080808694912C35E6831691041CF0F4E63C
:102E90008F2E912C65E04D815E81649FF001659FCE
:102EA000F00D1124A985BA85EA0FFB1F2F81388503
:102EB000E20FF31FE553FE4F20812F7009F425CF59
:102EC000019709F422CF4F8558894330510521F4E9
:102ED0008091C405811119CF822F90E0893091052E
:102EE00009F403C18E30910561F0089709F096C38B
:102EF000E1E0F0E0AF89B88D1796FC93EE9316975A
:102F000004C1A5E08D819E81A89FF001A99FF00DCD
:102F100011242F813885E20FF31F49855A85E40F6C
:102F2000F51FE453FE4F80818F77D10114966D9188
:102F30007C91159718962D913C9119971A96ED90C2
:102F4000FC901B970F2C000C000B110B032E000C98
:102F5000440B550B811163C0072E000C880B990B95
:102F60001F921F921F921F92A12CE0E2BE2EC12C35
:102F7000D12C0E94CA2C0F900F900F900F9097FDAC
:102F8000C4C0F101E284F3840F2C000C000B110B80
:102F900020853185032E000C440B550B648175810F
:102FA000072E000C880B990B1F921F921F921F92E5
:102FB000A12CB0E2BB2EC12CD12C0E94CA2C0F90A8
:102FC0000F900F900F90613070428105910524F0B1
:102FD000612CA0E27A2EC4C3D1011A96ED90FC9028
:102FE0001B970F2C000C000B110B18962D913C9188
:102FF0001997032E000C440B550B14966D917C9180
:103000001597072E000C880B990B1F921F921F9289
:103010001F92A12CF0E2BF2EC12CD12C91C3072E00
:10302000000C880B990B1F921F92BFE3BF93EFEF29
:10303000EF93A12CE0E2BE2EC12CD12C0E94CA2C11
:103040000F900F900F900F906115704281059105C0
:103050000CF4BECFD1011A96ED90FC901B970F2C6B
:10306000000C000B110B18962D913C911997032E13
:10307000000C440B550B14966D917C911597072EFF
:10308000000C880B990B1F921F92BFE3BF93EFEFC9
:10309000EF930E94CA2C0F900F900F900F90611524
:1030A0007044810591050CF053C3D1011A96ED903F
:1030B000FC901B970F2C000C000B110B18962D91F8
:1030C0003C911997032E000C440B550B14966D91EF
:1030D0007C911597072E000C880B990B1F921F925D
:1030E000BFE3BF93EFEFEF932BC3AF89B88D1A9671
:1030F0008D919C911B97F101C480D580892B29F17A
:1031000080859185C816D9061CF0612C712C28C3C6
:1031100016962D913C911797232BB9F71B961C926D
:103120001E921A9721E030E015963C932E93149747
:1031300019961C921E92189717963C932E931697E9
:1031400013969C938E931297E0CFAF89B88D129609
:103150008D919C9113978C159D050CF0A8C013962A
:10316000DC92CE921297BFE7B89DC001B99D900D39
:10317000112464E670E00E94F12F2B01770F66089E
:1031800077082FE7E981FA812E9FC0012F9F900DCC
:10319000112464E670E00E94F12FCB01770FAA0B97
:1031A000BB0B8B879C87AD87BE87D1011A96ED90AC
:1031B000FC901B970F2C000C000B110B18962D91F7
:1031C0003C911997032E000C440B550BB601DD0CF6
:1031D000880B990B7F926F925F924F92AB84BC8465
:1031E000CD84DE840E94CA2C0F900F900F900F9018
:1031F00097FD5DC0F101E284F3840F2C000C000BFD
:10320000110B20853185032E000C440B550BAF8923
:10321000B88D12966D917C911397072E000C880B38
:10322000990B7F926F925F924F92AB84BC84CD8456
:10323000DE840E94CA2C0F900F900F900F90603880
:103240007105810591054CF021E030E0EF89F88DA2
:10325000318720871182108258CFD1011A96ED90C4
:10326000FC901B970F2C000C000B110B18962D9146
:103270003C911997032E000C440B550BEF89F88DE8
:1032800062817381072E000C880B990B7F926F92DD
:103290005F924F92AB84BC84CD84DE840E94CA2CA2
:1032A0000F900F900F900F90161617066CF2AF89C3
:1032B000B88D18968D919C911997892B09F4AAC005
:1032C000F1012085318584819581821793070CF067
:1032D000A1C0FFE7F89DC001F99D900D112464E69F
:1032E00070E00E94F12F2B01770F660877086FE7D7
:1032F00049815A81649FC001659F900D112464E645
:1033000070E00E94F12FCB01770FAA0BBB0B8B87CC
:103310009C87AD87BE87D1011A96ED90FC901B97D4
:103320000F2C000C000B110B032E000C440B550B43
:10333000EF89F88D62817381072E000C880B990B41
:103340007F926F925F924F92AB84BC84CD84DE8477
:103350000E94CA2C0F900F900F900F9097FD5AC0AB
:10336000D1011A96ED90FC901B970F2C000C000BCE
:10337000110B18962D913C911997032E000C440BBC
:10338000550BEF89F88D62817381072E000C880B35
:10339000990B7F926F925F924F92AB84BC84CD84E5
:1033A000DE840E94CA2C0F900F900F900F9060380F
:1033B0007105810591050CF021C1D1011A96ED909E
:1033C000FC901B970F2C000C000B110B18962D91E5
:1033D0003C911997032E000C440B550BEF89F88D87
:1033E00062817381072E000C880B990B7F926F927C
:1033F0005F924F92AB84BC84CD84DE840E94CA2C41
:103400003B010F900F900F900F90161617060CF4BB
:10341000F8C002C0612C712CEF89F88D22853385AC
:10342000D10114968D919C911597232BE9F41A964E
:103430002D913C911B9728173907B4F4C40164E619
:1034400070E00E94F12FBFE7B69F3001B79F700C6C
:1034500011246D817E818F8598890E946602EF8993
:10346000F88D178216827CC1D10118962D913C915E
:103470001997821793070CF473C1EF89F88D428175
:1034800053814217530714F433832283AF89B88DD5
:1034900012964D915C911397481759074CF02817D5
:1034A000390734F48D919C91119701968D939C93DB
:1034B000EF89F88D8081918103970CF451C1FFE76A
:1034C000F89DC001F99D900D112464E670E00E9402
:1034D000F12F2B01770F660877086FE749815A8132
:1034E000649FC001659F900D112464E670E00E9406
:1034F000F12FCB01770FAA0BBB0B89839A83AB8388
:10350000BC83D1011A96ED90FC901B970F2C000CF8
:10351000000B110B032E000C440B550BEF89F88D9B
:1035200062817381072E000C880B990B7F926F923A
:103530005F924F92A980BA80CB80DC800E94CA2C17
:103540000F900F900F900F9097FDDFCDD1011A963D
:10355000ED90FC901B970F2C000C000B110B189694
:103560002D913C911997032E000C440B550BEF89BC
:10357000F88D62817381072E000C880B990B7F9266
:103580006F925F924F92A980BA80CB80DC800E94BC
:10359000CA2C0F900F900F900F9060387105810525
:1035A000910564F5D1011A96ED90FC901B970F2CB4
:1035B000000C000B110B18962D913C911997032EBE
:1035C000000C440B550BEF89F88D62817381072E37
:1035D000000C880B990B7F926F925F924F92A9809B
:1035E000BA80CB80DC800E94CA2C3B010F900F90E8
:1035F0000F900F901616170624F0B2C06FE7662ED4
:10360000712CAF89B88D17961C921E9216976D81FA
:103610007E818F8598890E946602A2C0BFE7B89D0F
:10362000C001B99D900D112464E670E00E94F12F55
:103630002B01770F660877082FE7E981FA812E9F23
:10364000C0012F9F900D112464E670E00E94F12FBD
:10365000CB01770FAA0BBB0B89839A83AB83BC8307
:10366000D1011A96ED90FC901B970F2C000C000BCB
:10367000110B18962D913C911997032E000C440BB9
:10368000550B14966D917C911597072E000C880BA5
:10369000990B7F926F925F924F92A980BA80CB80F4
:1036A000DC800E94CA2C0F900F900F900F9097FD16
:1036B0002CCDF101E284F3840F2C000C000B110BD4
:1036C00020853185032E000C440B550B64817581D8
:1036D000072E000C880B990B7F926F925F924F928E
:1036E000A980BA80CB80DC800E94CA2C0F900F90FA
:1036F0000F900F90603871058105910574F5D10127
:103700001A96ED90FC901B970F2C000C000B110BE0
:1037100018962D913C911997032E000C440B550BD4
:1037200014966D917C911597072E000C880B990BC0
:103730007F926F925F924F92A980BA80CB80DC809B
:103740000E94CA2C3B010F900F900F900F9008C061
:1037500066246A945FE3752E03C04FE7642E712CD4
:1037600025E0ED81FE812E9FC0012F9F900D112439
:10377000EF81F885E80FF91F49855A85E40FF51F99
:10378000E453FE4F4081242F221F2227221F518104
:103790005170550F522B252F30E0213031050CF49C
:1037A00011C1233031052CF02330310509F4E4C078
:1037B00009C1523039F4C12CD12C30E8E32E3FE35B
:1037C000F32E05C0C12CD12CE12C2FE3F22ED10118
:1037D0001A960D90BC91A02DBC87AB87F101408457
:1037E00051848D0104191509B801012E000C880BB4
:1037F000990B0E94BF2E20E030E040E05FE30E9482
:10380000742F69837A838B839C83C301B8010E94E0
:10381000F12F072E000C880B990B0E94BF2E9B01E5
:10382000AC0160E070E080E09FE30E94A32D4B01BB
:103830005C0120E030E0A9010E946F2F181624F0EF
:10384000B7FAB094B7F8B094A7019601C501B401D6
:103850000E94742F9B01AC0169817A818B819C81CC
:103860000E94742F0E94872E9B01770F440B550BEB
:1038700029833A834B835C834B855C857A01550FA2
:10388000000B110B9201550C440B550B1F921F920C
:103890001F926FE76F93A12CB12C650169817A812A
:1038A0008B819C810E94CA2C0F900F900F900F90DB
:1038B00097FD42C0D1011A96ED90FC901B970F2CFA
:1038C000000C000B110B18962D913C911997032EAB
:1038D000000C440B550B1F921F921F92BFE7BF9322
:1038E00069817A818B819C810E94CA2C0F900F90F4
:1038F0000F900F90603871058105910504F5F10175
:10390000E284F3840F2C000C000B110B2085318511
:10391000032E000C440B550B1F921F921F92FFE7C2
:10392000FF9369817A818B819C810E94CA2C0F90C0
:103930000F900F900F9005C060E070E002C06FE73D
:1039400070E045E02D813E81429FF001439FF00DE4
:1039500011248F819885E80FF91FA985BA85EA0F90
:10396000FB1FE353FE4F808181FD03C0660E771E6F
:1039700029C0661A770A26C0E985FA85E80FF91F7B
:103980002F813885E20FF31FE553FE4F80818F7042
:103990008E3039F016141704ACF49FE7692E712CA1
:1039A00011C04F7759F0E1E0F0E0AF89B88D15967E
:1039B000FC93EE931497612C712C04C066246A94D6
:1039C0008FE3782EA989BA898D919C916816790622
:1039D00039F4EF89F88D84819581892B09F470C0C1
:1039E000A989BA896D927C92EF89F88D8285938539
:1039F000892B29F084819581892B09F461C045E0E8
:103A00002D813E81429FC001439F900D1124EF8183
:103A1000F885E80FF91FA985BA85EA0FFB1FE45363
:103A2000FE4F40814F7750E0FD01E80FF91F2F81D5
:103A30003885E20FF31FE553FE4F8081682F6295B2
:103A40006F7070E08F70930190E00E940D14A09051
:103A50001401B12CC12CD12CD1011A96ED90FC90FF
:103A60001B970F2C000C000B110B18962D913C91FD
:103A70001997032E000C440B550B14966D917C91F5
:103A80001597072E000C880B990BE09115011F92DA
:103A90001F921F92EF930E94CA2C0F900F900F90CD
:103AA0000F9020911201309113012617370721F052
:103AB0007093130160931201EF89F88D15821482BF
:103AC0002D813E812F5F3F4F3E832D834F89588D3F
:103AD000425F5F4F588F4F8B89899A8902969A8BE4
:103AE000898B2330310509F062C90FC90E941B027E
:103AF0000E9487140C94CC1380E0089580E090E03D
:103B00000895CF92DF92EF92FF920F931F93CF937E
:103B1000DF93CDB7DEB7C456D1090FB6F894DEBF38
:103B20000FBECDBF6C01DB019C919E5F9C93FE019B
:103B3000319684E6DF011D928A95E9F788E0898352
:103B40008BE08A8322E02C8391E09D839E8339E081
:103B5000398774E07A879E879F873A8B44E24B8B44
:103B60009C8B00E011E01E8B0D8B89E0E82EF12C80
:103B7000F88EEF8A998F3B8F7C8F2F8F98A353E01D
:103B800059A387E08CA34DA39EA318A70FA301E41C
:103B900010E01AA709A786E08BA74CA72DA79EA720
:103BA0009FA789AB4AAB2BAB2CAB2DAB3FAB48AF40
:103BB00059AF9AAF5BAF9CAF2DAF9EAF21963FAF91
:103BC000219722964FAF229723965FAF2397249693
:103BD0002FAF249725967FAF259726969FAF2697E0
:103BE00027969FAF279728969FAF28972A963FAF93
:103BF0002A9745E02B964FAF2B972D962FAF2D97F9
:103C000060E470E02F967FAF6EAF2F9763964FAF53
:103C1000639785E264968FAF649765969FAF6597CB
:103C200066969FAF669767969FAF679768963FAF18
:103C3000689769964FAF69976B962FAF6B976D96A4
:103C40007FAF6EAF6D97A1964FAFA197A2968FAF42
:103C5000A297A3969FAFA397A4969FAFA497A5966C
:103C60005FAFA597D60112969C9112979B839B8775
:103C70009F5F9A8F9D8F13968C912C968FAF2C9768
:103C80008F5F80686A968FAF6A9744E650E0BF0105
:103C900080E00E94822ACC59DF4F0FB6F894DEBF35
:103CA0000FBECDBFDF91CF911F910F91FF90EF908D
:103CB000DF90CF9008958DE499E4A4E4B9E4FB018A
:103CC00080839183A283B38384E00895CF92DF92AF
:103CD000EF92FF920F931F93CF93DF9300D000D00A
:103CE000CDB7DEB78C01C090EE06D090EF06E09025
:103CF000F006F090F1068FEFC81AD80AE80AF80A21
:103D0000EFE3CE22DD24EE24FF248091F206909191
:103D1000F306A091F406B091F506C816D906EA0696
:103D2000FB06C9F1F80183810E94632944E050E059
:103D3000BE016F5F7F4FF80183810E947529049750
:103D400054F18091EE069091EF06A091F006B091AB
:103D5000F106880F991F880F991FFC01E251FA4F55
:103D600049815A816B817C81408351836283738353
:103D7000C092EE06D092EF06E092F006F092F106C5
:103D8000FFEFCF1ADF0AEF0AFF0A8FE3C822DD2414
:103D9000EE24FF24BACF0F900F900F900F90DF9179
:103DA000CF911F910F91FF90EF90DF90CF900895EA
:103DB000CF92DF92EF92FF92CF93DF934091EE0686
:103DC0005091EF066091F0067091F106C090F206F6
:103DD000D090F306E090F406F090F5064C195D09DA
:103DE0006E097F094F73552766277727452B462B8A
:103DF000472B49F4EC018B810E9463298823B9F099
:103E0000CE010E94661E8091F2069091F306A09169
:103E1000F406B091F506880F991F880F991FFC01D1
:103E2000E251FA4F308121818281938104C090E078
:103E300080E020E030E0C090EE06D090EF06E09009
:103E4000F006F090F1064091F2065091F306609171
:103E5000F4067091F506C416D506E606F706C1F01D
:103E60004091F2065091F3066091F4067091F506C8
:103E70004F5F5F4F6F4F7F4F4F73552766277727F1
:103E80004093F2065093F3066093F4067093F506A0
:103E9000632F722FDF91CF91FF90EF90DF90CF9043
:103EA0000895FC0183818F5F0C942A2CFC0183818F
:103EB0008F5F0E94EA291816190614F080E090E03E
:103EC0000895CF93DF9300D000D0CDB7DEB74983FC
:103ED0005A836B837C8344E050E0BE016F5F7F4F69
:103EE0000E94561F0F900F900F900F90DF91CF916F
:103EF0000895CF93DF93EC0182E08C838D83CE0114
:103F00000A969F838E83198618868FE891E099839D
:103F1000888380E88A8781E88B870E946027BE01BA
:103F2000DF91CF910C94192782EE95E00C94791FC4
:103F30000F931F93CF93DF93CB01BA0120E030E0C2
:103F400040E85FE30E94A42D9B01AC0160E070E0BB
:103F500080E89FE30E94152E9B01AC0160E070E0B9
:103F600080E89FE30E94A32D9B01AC010E94A42D39
:103F70008B01D82FC92F20E030E040E85FE30E949A
:103F80006F2F181624F400E010E0D0E8CFE3B8015A
:103F90008D2F9C2FDF91CF911F910F9108953F920C
:103FA0004F925F926F927F928F929F92AF92BF9249
:103FB000CF92DF92EF92FF920F931F93CF93DF93F5
:103FC000EC018B013884332009F44BC08D858823A4
:103FD00009F447C0072E000C880B990B0E94BF2ED6
:103FE0002B013C01C984DA84EB84FC84A70196018F
:103FF0000E94102E87FF0EC0B801660F771F072E94
:10400000000C880B990B0E94BF2EA70196010E94FD
:10401000A32D24C0AA80BB80B5010B2C000C880BFB
:10402000990B0E94BF2EA70196010E94A32D9B0110
:10403000AC01C301B2010E946F2F181694F4B801AD
:10404000660F771F6A197B09072E000C880B990BE6
:104050000E94BF2EA70196010E94A42D0E94872EC8
:104060008B014E845F8468887988B801110F880BB2
:10407000990B0E94BF2EA30192010E94A32D4B0118
:104080005C0120E030E0A9010E946F2F18161CF49B
:10409000C501B40103C0C501B40190580E948E2E21
:1040A0008B01CE88DF88E88CF98CA7019601C501C9
:1040B000B4010E94A32D2DEC3CEC4CEC5EE30E947D
:1040C000742F9B01AC01C701B6010E94A42D6B01A6
:1040D0007C016E8B7F8B888F998F3320E1F020E0FD
:1040E00030E0A9010E946F2F181624F0C701B60115
:1040F000905802C0C701B60129853A854B855C8579
:104100000E94102E881F8827881F8A8F882319F005
:10411000C301B20149C0B80180E090E00E94BD2E09
:104120002C813D814E815F810E94742FAB01BC01C7
:10413000CE010E94981F9B01AC01C501B4010E94F1
:10414000742F9B01AC01C301B2010E94A42D6B012D
:104150007C016E877F87888B998B20E030E0A901F6
:104160000E94102E87FF05C01E861F86188A198A96
:1041700017C08A819B810197BC01990F880B990B0D
:104180000E94BF2E4B015C019B01AC01C701B6012F
:104190000E946F2F181624F48E869F86A88AB98AEB
:1041A0006E857F85888999890E94872ECB01DF9152
:1041B000CF911F910F91FF90EF90DF90CF90BF9024
:1041C000AF909F908F907F906F905F904F903F90B7
:1041D0000895CF93DF93EC018D8D9E8D98A38F8FE3
:1041E000CE010E94CF1F9C019E8F8D8F91E04F8D3D
:1041F00058A12417350709F490E099A3DF91CF91D6
:104200000895CF93DF93EC0188810E946D229C8FEB
:104210008B8FBC01CE01DF91CF910C94E920CF921E
:10422000DF92EF92FF92CF93DF93EC016A017B0163
:1042300020E030E040E85FE3C701B6010E946F2F45
:1042400018166CF020E030E0A901C701B6010E9409
:10425000102E87FF0AC0C12CD12C760106C0C12CBC
:10426000D12C80E8E82E8FE3F82ECC82DD82EE821E
:10427000FF82DF91CF91FF90EF90DF90CF90089574
:104280008F929F92AF92BF92CF92DF92FF920F9345
:104290001F93CF93DF9300D0CDB7DEB76C01F62E1E
:1042A0004801590160E08F2D49837A830E9473236E
:1042B00060E08F2D0E94AF23F601F0827A81718336
:1042C00049814087B501A401C6010F900F90DF918D
:1042D000CF911F910F91FF90DF90CF90BF90AF9043
:1042E0009F908F900C940F211F920F920FB60F92F8
:1042F00011242F933F938F939F93AF93BF938091FC
:10430000F7069091F806A091F906B091FA0630915F
:10431000F60623E0230F2D3720F40196A11DB11DD1
:1043200005C026E8230F0296A11DB11D2093F606B5
:104330008093F7069093F806A093F906B093FA06D7
:104340008091FB069091FC06A091FD06B091FE06BF
:104350000196A11DB11D8093FB069093FC06A093CE
:10436000FD06B093FE06BF91AF919F918F913F9153
:104370002F910F900FBE0F901F9018952FB7F894A4
:104380006091F7067091F8068091F9069091FA060F
:104390002FBF08953FB7F8948091FB069091FC06DB
:1043A000A091FD06B091FE0626B5A89B05C02F3F43
:1043B00019F00196A11DB11D3FBFBA2FA92F982F4B
:1043C0008827820F911DA11DB11DBC01CD0142E0C6
:1043D000660F771F881F991F4A95D1F70895CF92CE
:1043E000DF92EF92FF92CF93DF936B017C010E94EB
:1043F000CA21EB01C114D104E104F10489F00E9447
:10440000A22D0E94CA216C1B7D0B683E734090F365
:1044100081E0C81AD108E108F108C851DC4FEACFA1
:10442000DF91CF91FF90EF90DF90CF900895789437
:1044300084B5826084BD84B5816084BD85B58260A9
:1044400085BD85B5816085BDEEE6F0E08081816047
:104450008083E1E8F0E01082808182608083808147
:1044600081608083E0E8F0E0808181608083E1E921
:10447000F0E0808182608083808181608083E0E9D8
:10448000F0E0808181608083E1ECF0E080818460F5
:104490008083808182608083808181608083E3EC7F
:1044A000F0E0808181608083E0ECF0E080818260D8
:1044B0008083E2ECF0E0808181608083EAE7F0E0D5
:1044C000808184608083808182608083808181603C
:1044D00080838081806880830895823108F08251D2
:1044E000E82FF0E0E25CFE4FE49180917B00E3FB7B
:1044F000222720F930E095E0220F331F9A95E1F74B
:104500008F7D282B20937B00E77080911E0120E493
:10451000829FC0011124E82BE0937C0080917A00F7
:10452000806480937A0080917A0086FDFCCF809130
:1045300078002091790090E0922B08951F93CF93FB
:10454000DF93182FEB0161E00E947323209711F491
:1045500060E004C0CF3FD10539F461E0812FDF91E5
:10456000CF911F910C94AF23E12FF0E0E65BFE4F5B
:10457000E4914E2F50E0FA013197EF30F10508F049
:104580006CC0EF57FF4F0C94463084B5806884BDF3
:10459000C7BD68C084B5806284BDC8BD63C080915A
:1045A0008000806880938000D0938900C093880049
:1045B00059C080918000806280938000D0938B00EE
:1045C000C0938A004FC080918000886080938000F3
:1045D000D0938D00C0938C0045C08091900080687E
:1045E00080939000D0939900C09398003BC0809135
:1045F0009000806280939000D0939B00C0939A00BB
:1046000031C080919000886080939000D0939D008D
:10461000C0939C0027C08091C00080688093C00038
:104620008091C0008F7B8093C000C093CF001AC0E0
:104630008091C00080628093C000C093D00012C0FF
:104640008091C20088608093C2008091C2008B7FFD
:104650008093C200C093D20005C0C038D1050CF0D1
:104660007CCF76CFDF91CF911F91089590E0FC0130
:104670003197EF30F105B0F5E057FF4F0C9446301D
:10468000809180008F7703C0809180008F7D809320
:104690008000089580918000877FF9CF84B58F775F
:1046A00002C084B58F7D84BD0895809190008F777E
:1046B00007C0809190008F7D03C080919000877F1C
:1046C0008093900008958091C0008F7703C08091FF
:1046D000C0008F7D8093C00008958091C200877FC5
:1046E0008093C2000895CF93DF9390E0FC01E759D7
:1046F000FE4F2491FC01E857FE4F8491882361F11D
:1047000090E0880F991FFC01EB54FE4FC591D491A6
:10471000FC01E955FE4FA591B491611109C09FB705
:10472000F8948881209582238883EC912E230BC0F6
:10473000623061F49FB7F8943881822F809583238B
:104740008883EC912E2B2C939FBF06C08FB7F894D3
:10475000E8812E2B28838FBFDF91CF9108951F937F
:10476000CF93DF93282F30E0F901E65BFE4F849171
:10477000F901E759FE4FD491F901E857FE4FC49172
:10478000CC23C9F0162F81110E943623EC2FF0E0C4
:10479000EE0FFF1FE955FE4FA591B4918FB7F89426
:1047A000111105C09C91ED2FE095E92302C0EC9119
:1047B000ED2BEC938FBFDF91CF911F910895CF9395
:1047C000DF931F92CDB7DEB76983DC01ED91FC91D9
:1047D0000280F381E02D41E050E0BE016F5F7F4F2A
:1047E00009950F90DF91CF910895CF93DF93EC015E
:1047F0008C859D8597FF05C082E00E94B9299D8721
:104800008C878C859D85DF91CF91089583E00C94F2
:104810002A2CFC018485958597FD06C082E00E94C4
:10482000632990E00196089582E00E94632990E058
:104830000895FC018485958597FD05C02FEF3FEF16
:1048400035872487089582E00C94B929CF93DF93AC
:10485000EC0180912A01882331F083E00E94EA294B
:104860001816190634F081E090E09B838A8380E07B
:1048700090E0DF91CF910895FC0190819E5F90833D
:1048800042E450E063EC71E080E80C94822AFC0181
:1048900081819081913A59F4813209F058C047E002
:1048A00050E063E271E080E00E94822A66C09132AB
:1048B00009F04DC0833291F49381892F90E0982FB5
:1048C00088272281822BA0E0B0E080931F01909383
:1048D0002001A0932101B09322014FC0803239F40E
:1048E00067E070E083E291E00E94A92A06C082326C
:1048F00009F043C0828180932A0180912301909125
:104900002401A0912501B0912601803B9440A1058E
:10491000B105F9F480912A0180FD1BC08091000847
:10492000909101089093FF0A8093FE0A87E797E72A
:1049300090930108809300089BE088E10FB6F894FB
:10494000A895809360000FBE9093600016C080E031
:1049500008950FB6F894A8958091600088618093BF
:104960006000109260000FBEA8958091FE0A9091A1
:10497000FF0A909301088093000881E008952FEFCB
:104980003FEFFC01358724870895EFEFF6E01382AF
:10499000128288EE93E0A0E0B0E084839583A68342
:1049A000B7838BE991E0918380838FEF9FEF9587A9
:1049B00084870895FC01918D228D892F90E0805C81
:1049C0009F4F821B91098F7399270895FC01918D48
:1049D000828D981731F0828DE80FF11D858D90E062
:1049E00008958FEF9FEF0895FC01918D828D9817A8
:1049F00061F0828DDF01A80FB11D5D968C91928DC3
:104A00009F5F9F73928F90E008958FEF9FEF0895BF
:104A10008DE596E2892B49F080E090E0892B29F022
:104A20000E945D2681110C9400000895FC01848D84
:104A3000DF01A80FB11DA35ABF4F2C91848D90E0C8
:104A400001968F739927848FA689B7892C93A089A3
:104A5000B1898C9180648C93938D848D981306C05A
:104A60000288F389E02D80818F7D80830895CF9324
:104A7000DF93EC01888D8823C9F0EA89FB89808166
:104A800085FD05C0A889B9898C9186FD0FC00FB638
:104A900007FCF5CF808185FFF2CFA889B9898C9179
:104AA00085FFEDCFCE010E941625E7CFDF91CF9194
:104AB0000895EF92FF920F931F93CF93DF93EC0132
:104AC00081E0888F9B8D8C8D981305C0E889F989CA
:104AD000808185FD24C0F62E0B8D10E00F5F1F4FE7
:104AE0000F731127E02E8C8DE8120CC00FB607FC57
:104AF000FACFE889F989808185FFF5CFCE010E9440
:104B00001625F1CF8B8DFE01E80FF11DE35AFF4F03
:104B1000F0820B8FEA89FB898081806207C0EE8971
:104B2000FF896083E889F98980818064808381E0DE
:104B300090E0DF91CF911F910F91FF90EF9008953A
:104B4000CF92DF92EF92FF921F93CF93DF93EC010E
:104B50006A017B01122FE889F98982E0808341157F
:104B6000514E61057105B1F060E079E08DE390E0B0
:104B7000A70196010E940530DA01C9010197A10938
:104B8000B109B695A79597958795AC01411580E138
:104B90005807A8F0E889F989108260E874E88EE186
:104BA00090E0A70196010E940530BA01A901415089
:104BB0005109610971097695679557954795EC8577
:104BC000FD855083EE85FF854083188EEC89FD8935
:104BD0001083EA89FB89808180618083EA89FB896F
:104BE000808188608083EA89FB89808180688083F6
:104BF000EA89FB8980818F7D8083DF91CF911F912E
:104C0000FF90EF90DF90CF9008951F920F920FB614
:104C10000F9211242F938F939F93EF93FF93E09123
:104C20005F07F09160078081E0916507F09166076A
:104C300082FD12C09081809168078F5F8F732091F1
:104C40006907821751F0E0916807F0E0E15BF84FE7
:104C5000958F8093680701C08081FF91EF919F91AC
:104C60008F912F910F900FBE0F901F9018951F924C
:104C70000F920FB60F9211242F933F934F935F9390
:104C80006F937F938F939F93AF93BF93EF93FF9314
:104C90008FE497E00E941625FF91EF91BF91AF91AD
:104CA0009F918F917F916F915F914F913F912F9144
:104CB0000F900FBE0F901F9018958FE497E00E9401
:104CC000DA2421E0892B09F420E0822F0895EFE413
:104CD000F7E01382128288EE93E0A0E0B0E08483D4
:104CE0009583A683B7838BEA91E0918380838DECD3
:104CF00090E0958784878CEC90E09787868788EC96
:104D000090E0918B808B89EC90E0938B828B8AEC86
:104D100090E0958B848B8EEC90E0978B868B118E38
:104D2000128E138E148E0895EF92FF920F931F939D
:104D3000CF93DF937B01FC01C281D38100E010E0BF
:104D4000209781F0E881F9810280F381E02DB7019D
:104D5000CE01099597FD08C0080F191F0884D98551
:104D6000C02DEECFC80102C08FEF9FEFDF91CF9132
:104D70001F910F91FF90EF9008950F931F93CF9382
:104D8000DF938B01FC01C281D381209771F0E88110
:104D9000F9810480F581E02DB801CE0109950097D5
:104DA00031F40884D985C02DF0CF80E090E0DF9108
:104DB000CF911F910F9108950F931F93CF93DF937E
:104DC0008B01FC01C281D381209771F0E881F981C8
:104DD0000680F781E02DB801CE010995080F111D5D
:104DE0000884D985C02DF0CFF8011082DF91CF91D2
:104DF0001F910F9108950F931F93CF93DF938B0112
:104E0000FC01C281D381209771F0E881F981019082
:104E1000F081E02DB801CE010995811105C008840B
:104E2000D985C02DF0CF80E0DF91CF911F910F91F8
:104E30000895CF93DF93FC01DB01218114968C91BF
:104E4000149790E0820F911D0897B4F5C281D38129
:104E5000209719F47383628308C088859985009729
:104E600011F0EC01FACFB987A887808112968C9354
:104E70001297818113968C931397908115968C913C
:104E80001597890F808380E014969C911497891759
:104E900088F41696CD91DC911797C80FD11D988193
:104EA000C181D0E0C55DDE4F988391819F5F918382
:104EB0008F5FEACF81E001C080E0DF91CF9108955C
:104EC0008091F00781110DC082E08093EC0784E0AF
:104ED0008093ED071092EF071092EE0781E0809328
:104EE000F0078CEE97E00895CF92DF92EF92FF9259
:104EF0000F931F93CF93DF936C017A018B01C0E076
:104F0000D0E0CE15DF0589F0D8016D918D01D60175
:104F1000ED91FC910190F081E02DC6010995892B5E
:104F200011F47E0102C02196ECCFC701DF91CF9131
:104F30001F910F91FF90EF90DF90CF900895611532
:104F4000710579F0FB0101900020E9F73197AF017D
:104F5000461B570BDC01ED91FC910280F381E02DA3
:104F6000099480E090E00895DC01ED91FC91DB0173
:104F700014964D915C9115976D917C910280F3810F
:104F8000E02D09940C949F27DC01ED91FC91019098
:104F9000F081E02D099467EB71E00C949F270F934B
:104FA0001F93CF93DF93EC010E94B4278C01CE01B5
:104FB0000E94CB27800F911FDF91CF911F910F91FE
:104FC00008950F931F93CF93DF93EC010E949F27C7
:104FD0008C01CE010E94CB27800F911FDF91CF91D2
:104FE0001F910F9108958F929F92AF92BF92CF928F
:104FF000DF92EF92FF920F931F93CF93DF93CDB782
:10500000DEB7A1970FB6F894DEBF0FBECDBF6C011F
:10501000142FE52FCB01022F19A2223008F40AE049
:105020007E0121E2E20EF11C802E912CA12CB12CEC
:10503000612F7E2FA50194010E940530029F101957
:10504000112481E0E81AF1081A3014F4105D01C04F
:10505000195CF7011083122FE32FCA01232B242B95
:10506000252B31F7B701C6010E949F27A1960FB6E5
:10507000F894DEBF0FBECDBFDF91CF911F910F918E
:10508000FF90EF90DF90CF90BF90AF909F908F9068
:105090000895CF92DF92EF92FF920F931F93CF93D9
:1050A000DF93EC016A017B012115310579F4E88178
:1050B000F9810190F081E02D642FDF91CF911F9154
:1050C0000F91FF90EF90DF90CF9009942A30310537
:1050D000E9F477FF1AC06DE20E94C4278C014427CF
:1050E0005527BA014C195D096E097F092AE0CE01E6
:1050F0000E94F327800F911FDF91CF911F910F9195
:10510000FF90EF90DF90CF9008952AE0B701A601BD
:10511000CE01DF91CF911F910F91FF90EF90DF9023
:10512000CF900C94F3270F931F93CF93DF93EC0151
:105130009A01AB01770F660B770B0E9449288C010F
:10514000CE010E94CB27800F911FDF91CF911F913D
:105150000F910895615030F02091F100FC012083FF
:105160000196F8CF289884E680930108089540912D
:10517000FC075091FD072091FA073091FB07421779
:105180005307B4F49091E8009570E1F39091E80032
:1051900092FD19C08093F1008091FC079091FD076A
:1051A00001968F739927892B19F48EEF8093E8006D
:1051B0008091FC079091FD0701969093FD078093E5
:1051C000FC0781E0089580E00895CF92DF92EF928E
:1051D000FF920F931F93CF93DF931F92CDB7DEB74C
:1051E000182F062FE42E862F880F8E5F99830E943A
:1051F000B72883E00E94B728F12EC12E9981D92EBD
:105200008C2D8F19801798F4F601E7FE02C0849167
:1052100001C080810E94B728182F80E00E94B72823
:105220008123FFEFCF1ADF0A8111EACF01C081E0AD
:105230000F90DF91CF911F910F91FF90EF90DF9032
:10524000CF9008958091D70081608093D70080EA45
:105250008093D80089B5806189BD89B5826089BD98
:1052600009B400FEFDCF61E070E080E090E00E94B4
:10527000EF218091D8008F7C80618093D80080914D
:10528000E000807F8093E0000895CF93DF931F922A
:10529000CDB7DEB71982CE0101960E943C240E9450
:1052A0006027BE016F5F7F4F0E94942689810F9017
:1052B000DF91CF9108952FB7FC012083F894677098
:1052C0006093E9000895CF93DF931F92CDB7DEB7C7
:1052D000682FCE0101960E945B298091F20099818E
:1052E0009FBF0F90DF91CF910895EF92FF920F93A0
:1052F0001F93CF93DF931F92CDB7DEB79091000835
:10530000992311F057FF03C08FEF9FEF2AC08A0146
:105310007B01682FCE0101960E945B298091F200EB
:1053200090E0A801801791070CF4AC01842FF701DD
:1053300094E6815038F02898909301082091F1006C
:105340002193F7CF4115510521F08091F200882378
:1053500021F089818FBFCA0104C08BE68093E800E9
:10536000F8CF0F90DF91CF911F910F91FF90EF90A9
:105370000895CF93DF931F92CDB7DEB741E050E0A1
:10538000BE016F5F7F4F0E947529019719F48981D3
:1053900090E002C08FEF9FEF0F90DF91CF910895C3
:1053A000CF93DF931F92CDB7DEB7682FCE01019662
:1053B0000E945B299091E800892F807295FF04C0BC
:1053C0009091F20080E4891B99819FBF0F90DF913B
:1053D000CF9108956F927F928F929F92AF92BF92DA
:1053E000CF92DF92EF92FF920F931F93CF93DF93B1
:1053F0001F92CDB7DEB7A82E6B01B42E052F80917A
:105400000008882369F0E42EF52E8AEF982E8A2D65
:105410008072782E9AE3892E8A2D8074682E12C0AD
:105420008FEF9FEF54C08A2D0E94D029182F811131
:105430000DC09A949920A1F361E070E080E090E0C3
:105440000E94EF21E114F10471F737C090E0E816F3
:10545000F9060CF41E2D6A2DCE0101960E945B29DF
:105460008091E80085FF26C0812F90E0E81AF90AB4
:10547000772029F01150A8F01092F100FBCFF6012F
:10548000A7FE07C0115058F024912093F1003196E7
:10549000F9CF115020F021912093F100FACFC80EDE
:1054A000D91E8091E80085FF0FC0E114F10411F4CA
:1054B00061100AC089818FBFC5CF5D9884E6809353
:1054C00002088B2D902F03C08092E800F3CF0F903D
:1054D000DF91CF911F910F91FF90EF90DF90CF90D0
:1054E000BF90AF909F908F907F906F900895109293
:1054F000E9001092FD071092FC079093FB07809340
:10550000FA070895DF92EF92FF920F931F93CF93C4
:10551000DF93D82E8A017B01E40EF51EEB01CE1538
:10552000DF0571F0D7FE03C0FE01849101C08881C0
:105530000E94B72821968111F2CF8FEF9FEF01C013
:10554000C801DF91CF911F910F91FF90EF90DF90F5
:1055500008951F93CF93DF931F92CDB7DEB7162F19
:105560002091E80022FFFCCF612F79830E94AA28B6
:105570008BEF8093E800812F7981972F0F90DF9137
:10558000CF911F9108951F920F920FB60F92112481
:10559000CF92DF92EF92FF920F931F932F933F933F
:1055A0004F935F936F937F938F939F93AF93BF932B
:1055B000EF93FF93CF93DF93CDB7DEB76C97DEBF4A
:1055C000CDBF1092E9008091E80083FF24C168E01C
:1055D000CE0145960E94AA2882EF8093E8008D892B
:1055E00087FF05C09091E80090FFFCCF03C09EEFBD
:1055F0009093E800982F907609F0F1C09E892F894A
:10560000188D91110CC0803829F48091FF07809388
:10561000F10002C01092F1001092F100F5C0422F8B
:1056200050E0512B913051F48111EEC041305105C1
:1056300009F0EAC08091FF078D7F0BC0933061F4C1
:105640008111E2C04130510509F0DEC08091FF07B1
:1056500082608093FF07D8C0953041F48091E800C4
:1056600080FFFCCF20682093E300CEC0963009F085
:105670008CC0EB8CFC8C123069F580E090E00E94CD
:10568000772A0E94452999E09E012F5F3F4F6901CB
:10569000F901292F11922A95E9F799831A8391E04C
:1056A0009E8390EA98879AEF99872091FC07309122
:1056B000FD07275F3F4F3C832B838D83C7010E94EB
:1056C000772A49E050E0B60180E00E94822A0E94D9
:1056D00045299AC0C7010E94772A0E946027BE010F
:1056E0006B5E7F4F0E94BD26009719F00CF08CC0B6
:1056F0008FC0113071F48B8D9C8D089719F481E067
:105700008093F9078091F90781112FC067E172E05A
:1057100031C0133009F07CC08F89882349F1823071
:1057200029F440E869E181E392E006C0813039F470
:1057300040E867E089E292E00E94E52863C0833098
:1057400009F066C00E9460278E010F5F1F4FB801ED
:105750000E94DC26F80101900020E9F73197BF0193
:10576000601B710B40E0C801E7CF65E072E002C04A
:105770006BE472E06115710509F44AC0FB014491C4
:1057800050E080E80E94822A3FC0973009F440C070
:10579000983021F481E08093F10036C09930A1F572
:1057A0008370B1F5ECE2F1E081E021E036E3908135
:1057B000992361F08093E9002093EB0091919093FD
:1057C000EC003093ED008F5F873089F78EE7809390
:1057D000EA001092EA008F898093000815C08B8D33
:1057E0009C8D0E94772A898D811105C0CE01459636
:1057F0000E94472407C00E946027BE016B5E7F4F56
:105800000E94FB26882321F08EEF8093E80003C0DE
:1058100081E28093EB006C960FB6F894DEBF0FBE6A
:10582000CDBFDF91CF91FF91EF91BF91AF919F914C
:105830008F917F916F915F914F913F912F911F9128
:105840000F91FF90EF90DF90CF900F900FBE0F90D1
:105850001F9018958093E9008091F200882319F039
:105860008AE38093E80008951F920F920FB60F927B
:1058700011242F933F934F935F936F937F938F9355
:105880009F93AF93BF93CF93EF93FF93C091E100AA
:105890008091E100837F8093E1008093E100C3FF6A
:1058A0000FC01092E90081E08093EB001092EC00B1
:1058B00082E38093ED001092000888E08093F0006E
:1058C000C2FF19C083E00E942A2C8091020888231D
:1058D00039F080910208815080930208882389F171
:1058E00080910108882339F08091010881508093CC
:1058F0000108882341F1C4FF10C08091E2008E7E30
:1059000081608093E2008091E1008F7E8093E100CE
:105910008091FE078E7E806111C0C0FF16C080910D
:10592000E2008E7E80618093E2008091E1008E7EB5
:105930008093E1008091FE078E7E81608093FE0758
:1059400004C05D9ACDCF289AD6CFFF91EF91CF9129
:10595000BF91AF919F918F917F916F915F914F9187
:105960003F912F910F900FBE0F901F90189510929E
:1059700000081092FF071092FE070E942229E1EE14
:10598000F0E080818E7E80838DE08093E200559AE6
:10599000209A08954F925F926F927F92AF92BF923A
:1059A000CF92DF92EF92FF920F931F93CF93DF93EB
:1059B000CDB7DEB729013A019B01AC0124193509A5
:1059C0004609570989899A89AB89BC89BC01CD01EF
:1059D0006A197B098C099D090E94E12FA801970192
:1059E00024193509460957090E942730CA01B9010F
:1059F0006A0D7B1D8C1D9D1DDF91CF911F910F9115
:105A0000FF90EF90DF90CF90BF90AF907F906F901E
:105A10005F904F900895FC01808191810C940F312B
:105A2000CF93DF93EC0188819981009711F00E9458
:105A30000F31198218821D821C821B821A82DF910B
:105A4000CF9108950F931F93CF93DF93EC018B01B8
:105A50006F5F7F4F888199810E94A731009731F055
:105A6000998388831B830A8381E001C080E0DF91F2
:105A7000CF911F910F910895CF93DF93EC0188810F
:105A80009981892B29F08A819B818617970760F479
:105A9000CE010E94222D882341F08C819D81892B8B
:105AA00019F4E881F981108281E0DF91CF910895A6
:105AB000EF92FF920F931F93CF93DF93EC017B0143
:105AC0008A01BA010E943C2D811104C0CE010E94BE
:105AD000102D07C01D830C83B701888199810E9416
